Archive member included to satisfy reference by file (symbol)

/usr/bin/../lib/gcc/arm-none-eabi/8.3.1/thumb/v7-m/nofp/libgcc.a(_arm_addsubsf3.o)
                              build/vddcheck.o (__aeabi_fsub)
/usr/bin/../lib/gcc/arm-none-eabi/8.3.1/thumb/v7-m/nofp/libgcc.a(_arm_muldivsf3.o)
                              build/vddcheck.o (__aeabi_fdiv)
/usr/bin/../lib/gcc/arm-none-eabi/8.3.1/thumb/v7-m/nofp/libgcc.a(_arm_fixunssfsi.o)
                              build/vddcheck.o (__aeabi_f2uiz)
/usr/bin/../lib/gcc/arm-none-eabi/8.3.1/thumb/v7-m/nofp/libgcc.a(_aeabi_uldivmod.o)
                              build/em_usart.o (__aeabi_uldivmod)
/usr/bin/../lib/gcc/arm-none-eabi/8.3.1/thumb/v7-m/nofp/libgcc.a(_udivmoddi4.o)
                              /usr/bin/../lib/gcc/arm-none-eabi/8.3.1/thumb/v7-m/nofp/libgcc.a(_aeabi_uldivmod.o) (__udivmoddi4)
/usr/bin/../lib/gcc/arm-none-eabi/8.3.1/thumb/v7-m/nofp/libgcc.a(_dvmd_tls.o)
                              /usr/bin/../lib/gcc/arm-none-eabi/8.3.1/thumb/v7-m/nofp/libgcc.a(_aeabi_uldivmod.o) (__aeabi_ldiv0)
/usr/bin/../lib/gcc/arm-none-eabi/8.3.1/../../../../arm-none-eabi/lib/thumb/v7-m/nofp/libc_nano.a(lib_a-exit.o)
                              /usr/bin/../lib/gcc/arm-none-eabi/8.3.1/../../../../arm-none-eabi/lib/thumb/v7-m/nofp/crt0.o (exit)
/usr/bin/../lib/gcc/arm-none-eabi/8.3.1/../../../../arm-none-eabi/lib/thumb/v7-m/nofp/libc_nano.a(lib_a-impure.o)
                              /usr/bin/../lib/gcc/arm-none-eabi/8.3.1/../../../../arm-none-eabi/lib/thumb/v7-m/nofp/libc_nano.a(lib_a-exit.o) (_global_impure_ptr)
/usr/bin/../lib/gcc/arm-none-eabi/8.3.1/../../../../arm-none-eabi/lib/thumb/v7-m/nofp/libc_nano.a(lib_a-init.o)
                              /usr/bin/../lib/gcc/arm-none-eabi/8.3.1/../../../../arm-none-eabi/lib/thumb/v7-m/nofp/crt0.o (__libc_init_array)
/usr/bin/../lib/gcc/arm-none-eabi/8.3.1/../../../../arm-none-eabi/lib/thumb/v7-m/nofp/libc_nano.a(lib_a-memcpy-stub.o)
                              build/bsp_stk.o (memcpy)
/usr/bin/../lib/gcc/arm-none-eabi/8.3.1/../../../../arm-none-eabi/lib/thumb/v7-m/nofp/libc_nano.a(lib_a-memset.o)
                              /usr/bin/../lib/gcc/arm-none-eabi/8.3.1/../../../../arm-none-eabi/lib/thumb/v7-m/nofp/crt0.o (memset)
/usr/bin/../lib/gcc/arm-none-eabi/8.3.1/../../../../arm-none-eabi/lib/thumb/v7-m/nofp/libc_nano.a(lib_a-strlen.o)
                              build/segmentlcd.o (strlen)
/usr/bin/../lib/gcc/arm-none-eabi/8.3.1/../../../../arm-none-eabi/lib/thumb/v7-m/nofp/libnosys.a(_exit.o)
                              /usr/bin/../lib/gcc/arm-none-eabi/8.3.1/../../../../arm-none-eabi/lib/thumb/v7-m/nofp/libc_nano.a(lib_a-exit.o) (_exit)

Allocating common symbols
Common symbol       size              file

SystemCoreClock     0x4               build/system_efm32gg.o

Discarded input sections

 .text          0x0000000000000000        0x0 /usr/bin/../lib/gcc/arm-none-eabi/8.3.1/thumb/v7-m/nofp/crti.o
 .data          0x0000000000000000        0x0 /usr/bin/../lib/gcc/arm-none-eabi/8.3.1/thumb/v7-m/nofp/crti.o
 .bss           0x0000000000000000        0x0 /usr/bin/../lib/gcc/arm-none-eabi/8.3.1/thumb/v7-m/nofp/crti.o
 .data          0x0000000000000000        0x4 /usr/bin/../lib/gcc/arm-none-eabi/8.3.1/thumb/v7-m/nofp/crtbegin.o
 .data          0x0000000000000000        0x0 /usr/bin/../lib/gcc/arm-none-eabi/8.3.1/../../../../arm-none-eabi/lib/thumb/v7-m/nofp/crt0.o
 .bss           0x0000000000000000        0x0 /usr/bin/../lib/gcc/arm-none-eabi/8.3.1/../../../../arm-none-eabi/lib/thumb/v7-m/nofp/crt0.o
 .ARM.extab     0x0000000000000000        0x0 /usr/bin/../lib/gcc/arm-none-eabi/8.3.1/../../../../arm-none-eabi/lib/thumb/v7-m/nofp/crt0.o
 .text          0x0000000000000000        0x0 build/system_efm32gg.o
 .data          0x0000000000000000        0x0 build/system_efm32gg.o
 .bss           0x0000000000000000        0x0 build/system_efm32gg.o
 .text.SystemHFXOClockSet
                0x0000000000000000       0x2c build/system_efm32gg.o
 .text.SystemLFXOClockSet
                0x0000000000000000       0x2c build/system_efm32gg.o
 .text          0x0000000000000000        0x0 build/vddcheck.o
 .data          0x0000000000000000        0x0 build/vddcheck.o
 .bss           0x0000000000000000        0x0 build/vddcheck.o
 .text.VCMP_Disable
Memory Configuration

Name             Origin             Length             Attributes
FLASH            0x0000000000000000 0x0000000000100000 xr
RAM              0x0000000020000000 0x0000000000020000 xrw
*default*        0x0000000000000000 0xffffffffffffffff

Linker script and memory map

LOAD /usr/bin/../lib/gcc/arm-none-eabi/8.3.1/thumb/v7-m/nofp/crti.o
LOAD /usr/bin/../lib/gcc/arm-none-eabi/8.3.1/thumb/v7-m/nofp/crtbegin.o
LOAD /usr/bin/../lib/gcc/arm-none-eabi/8.3.1/../../../../arm-none-eabi/lib/thumb/v7-m/nofp/crt0.o
LOAD build/system_efm32gg.o
LOAD build/vddcheck.o
LOAD build/segmentlcd.o
LOAD build/em_assert.o
LOAD build/em_cmu.o
LOAD build/em_emu.o
LOAD build/em_gpio.o
LOAD build/em_rtc.o
LOAD build/em_system.o
LOAD build/em_lcd.o
LOAD build/em_vcmp.o
LOAD build/em_usart.o
LOAD build/bsp_stk.o
LOAD build/bsp_stk_leds.o
LOAD build/bsp_trace.o
LOAD build/init.o
LOAD build/startup_efm32gg.o
LOAD build/o3.o
START GROUP
LOAD /usr/bin/../lib/gcc/arm-none-eabi/8.3.1/thumb/v7-m/nofp/libgcc.a
LOAD /usr/bin/../lib/gcc/arm-none-eabi/8.3.1/../../../../arm-none-eabi/lib/thumb/v7-m/nofp/libc_nano.a
LOAD /usr/bin/../lib/gcc/arm-none-eabi/8.3.1/../../../../arm-none-eabi/lib/thumb/v7-m/nofp/libnosys.a
END GROUP
START GROUP
LOAD /usr/bin/../lib/gcc/arm-none-eabi/8.3.1/thumb/v7-m/nofp/libgcc.a
LOAD /usr/bin/../lib/gcc/arm-none-eabi/8.3.1/../../../../arm-none-eabi/lib/thumb/v7-m/nofp/libc_nano.a
END GROUP
START GROUP
LOAD /usr/bin/../lib/gcc/arm-none-eabi/8.3.1/thumb/v7-m/nofp/libgcc.a
LOAD /usr/bin/../lib/gcc/arm-none-eabi/8.3.1/../../../../arm-none-eabi/lib/thumb/v7-m/nofp/libc_nano.a
END GROUP
LOAD /usr/bin/../lib/gcc/arm-none-eabi/8.3.1/thumb/v7-m/nofp/crtend.o
LOAD /usr/bin/../lib/gcc/arm-none-eabi/8.3.1/thumb/v7-m/nofp/crtn.o

.text           0x0000000000000000     0x27f8
 *(.vectors)
 .vectors       0x0000000000000000       0xdc build/startup_efm32gg.o
                0x0000000000000000                __Vectors
                0x00000000000000dc                __Vectors_End = .
                0x00000000000000dc                __Vectors_Size = (__Vectors_End - __Vectors)
                0x00000000200000c0                __end__ = .
 *(.text*)
 .text          0x00000000000000dc       0x40 /usr/bin/../lib/gcc/arm-none-eabi/8.3.1/thumb/v7-m/nofp/crtbegin.o
 .text          0x000000000000011c       0x74 /usr/bin/../lib/gcc/arm-none-eabi/8.3.1/../../../../arm-none-eabi/lib/thumb/v7-m/nofp/crt0.o
                0x000000000000011c                _mainCRTStartup
                0x000000000000011c                _start
 .text.GetProdRev
                0x0000000000000190       0x10 build/system_efm32gg.o
 .text.SystemCoreClockGet
                0x00000000000001a0       0x34 build/system_efm32gg.o
                0x00000000000001a0                SystemCoreClockGet
 .text.SystemMaxCoreClockGet
                0x00000000000001d4        0xc build/system_efm32gg.o
                0x00000000000001d4                SystemMaxCoreClockGet
 .text.SystemHFClockGet
                0x00000000000001e0      0x100 build/system_efm32gg.o
                0x00000000000001e0                SystemHFClockGet
 .text.SystemHFXOClockGet
                0x00000000000002e0        0xc build/system_efm32gg.o
                0x00000000000002e0                SystemHFXOClockGet
 .text.SystemInit
                0x00000000000002ec        0x4 build/system_efm32gg.o
                0x00000000000002ec                SystemInit
 .text.SystemLFRCOClockGet
                0x00000000000002f0        0x8 build/system_efm32gg.o
                0x00000000000002f0                SystemLFRCOClockGet
 .text.SystemULFRCOClockGet
                0x00000000000002f8        0x8 build/system_efm32gg.o
                0x00000000000002f8                SystemULFRCOClockGet
 .text.SystemLFXOClockGet
                0x0000000000000300        0xc build/system_efm32gg.o
                0x0000000000000300                SystemLFXOClockGet
 .text.LCD_FreezeEnable
                0x000000000000030c       0x28 build/segmentlcd.o
 .text.LCD_SyncBusyDelay
                0x0000000000000334       0x1c build/segmentlcd.o
 .text.LCD_IntDisable
                0x0000000000000350       0x1c build/segmentlcd.o
 .text.SegmentLCD_AllOff
                0x000000000000036c       0xac build/segmentlcd.o
                0x000000000000036c                SegmentLCD_AllOff
 .text.SegmentLCD_AlphaNumberOff
                0x0000000000000418       0xa8 build/segmentlcd.o
                0x0000000000000418                SegmentLCD_AlphaNumberOff
 .text.SegmentLCD_Init
                0x00000000000004c0       0xbc build/segmentlcd.o
                0x00000000000004c0                SegmentLCD_Init
 .text.SegmentLCD_Write
                0x000000000000057c       0xd8 build/segmentlcd.o
                0x000000000000057c                SegmentLCD_Write
 .text.assertEFM
                0x0000000000000654        0x8 build/em_assert.o
                0x0000000000000654                assertEFM
 .text.BUS_RegBitWrite
                0x000000000000065c       0x24 build/em_cmu.o
 .text.BUS_RegBitRead
                0x0000000000000680       0x20 build/em_cmu.o
 .text.CMU_DivToLog2
                0x00000000000006a0       0x38 build/em_cmu.o
 .text.SYSTEM_GetProdRev
                0x00000000000006d8       0x10 build/em_cmu.o
 .text.SYSTEM_GetFamily
                0x00000000000006e8       0x10 build/em_cmu.o
 .text.maxFreqHfle
                0x00000000000006f8       0x90 build/em_cmu.o
 .text.setHfLeConfig
                0x0000000000000788       0x3c build/em_cmu.o
 .text.getHfLeConfig
                0x00000000000007c4       0x40 build/em_cmu.o
 .text.auxClkGet
                0x0000000000000804       0xbc build/em_cmu.o
 .text.dbgClkGet
                0x00000000000008c0       0x50 build/em_cmu.o
 .text.flashWaitStateControl
                0x0000000000000910       0xbc build/em_cmu.o
 .text.flashWaitStateMax
                0x00000000000009cc       0x12 build/em_cmu.o
 *fill*         0x00000000000009de        0x2 
 .text.lfClkGet
                0x00000000000009e0      0x10c build/em_cmu.o
 .text.syncReg  0x0000000000000aec       0x2c build/em_cmu.o
 .text.usbCClkGet
                0x0000000000000b18       0x4c build/em_cmu.o
 .text.CMU_ClockDivSet
                0x0000000000000b64      0x2c8 build/em_cmu.o
                0x0000000000000b64                CMU_ClockDivSet
 .text.CMU_ClockEnable
                0x0000000000000e2c       0xe4 build/em_cmu.o
                0x0000000000000e2c                CMU_ClockEnable
 .text.CMU_ClockFreqGet
                0x0000000000000f10      0x1e0 build/em_cmu.o
                0x0000000000000f10                CMU_ClockFreqGet
 .text.CMU_ClockSelectGet
                0x00000000000010f0      0x190 build/em_cmu.o
                0x00000000000010f0                CMU_ClockSelectGet
 .text.CMU_ClockSelectSet
                0x0000000000001280      0x308 build/em_cmu.o
                0x0000000000001280                CMU_ClockSelectSet
 .text.CMU_LCDClkFDIVSet
                0x0000000000001588       0x4c build/em_cmu.o
                0x0000000000001588                CMU_LCDClkFDIVSet
 .text.CMU_OscillatorEnable
                0x00000000000015d4       0xd4 build/em_cmu.o
                0x00000000000015d4                CMU_OscillatorEnable
 .text.EMU_UpdateOscConfig
                0x00000000000016a8       0x14 build/em_emu.o
                0x00000000000016a8                EMU_UpdateOscConfig
 .text.SYSTEM_ChipRevisionGet
                0x00000000000016bc       0x90 build/em_system.o
                0x00000000000016bc                SYSTEM_ChipRevisionGet
 .text.LCD_Enable
                0x000000000000174c       0x34 build/em_lcd.o
 .text.BUS_RegBitWrite
                0x0000000000001780       0x24 build/em_lcd.o
 .text.LCD_Init
                0x00000000000017a4       0x88 build/em_lcd.o
                0x00000000000017a4                LCD_Init
 .text.LCD_VLCDSelect
                0x000000000000182c       0x3c build/em_lcd.o
                0x000000000000182c                LCD_VLCDSelect
 .text.LCD_SegmentRangeEnable
                0x0000000000001868       0x44 build/em_lcd.o
                0x0000000000001868                LCD_SegmentRangeEnable
 .text.LCD_SegmentSet
                0x00000000000018ac      0x214 build/em_lcd.o
                0x00000000000018ac                LCD_SegmentSet
 .text.LCD_SegmentSetLow
                0x0000000000001ac0      0x194 build/em_lcd.o
                0x0000000000001ac0                LCD_SegmentSetLow
 .text.LCD_SegmentSetHigh
                0x0000000000001c54      0x18c build/em_lcd.o
                0x0000000000001c54                LCD_SegmentSetHigh
 .text.LCD_VBoostSet
                0x0000000000001de0       0x20 build/em_lcd.o
                0x0000000000001de0                LCD_VBoostSet
 .text.NVIC_EnableIRQ
                0x0000000000001e00       0x2c build/init.o
 .text.CHIP_Init
                0x0000000000001e2c       0x44 build/init.o
 .text.lcd_write
                0x0000000000001e70       0x14 build/init.o
                0x0000000000001e70                lcd_write
 .text.init     0x0000000000001e84       0x28 build/init.o
                0x0000000000001e84                init
 .text          0x0000000000001eac       0x30 build/startup_efm32gg.o
                0x0000000000001eac                Reset_Handler
                0x0000000000001ed8                TIMER2_IRQHandler
                0x0000000000001ed8                DebugMon_Handler
                0x0000000000001ed8                USART0_TX_IRQHandler
                0x0000000000001ed8                I2C0_IRQHandler
                0x0000000000001ed8                HardFault_Handler
                0x0000000000001ed8                LEUART1_IRQHandler
                0x0000000000001ed8                USART1_RX_IRQHandler
                0x0000000000001ed8                PendSV_Handler
                0x0000000000001ed8                NMI_Handler
                0x0000000000001ed8                I2C1_IRQHandler
                0x0000000000001ed8                TIMER3_IRQHandler
                0x0000000000001ed8                USART1_TX_IRQHandler
                0x0000000000001ed8                MSC_IRQHandler
                0x0000000000001ed8                ADC0_IRQHandler
                0x0000000000001ed8                UsageFault_Handler
                0x0000000000001ed8                LEUART0_IRQHandler
                0x0000000000001ed8                UART0_TX_IRQHandler
                0x0000000000001ed8                UART1_TX_IRQHandler
                0x0000000000001ed8                RTC_IRQHandler
                0x0000000000001ed8                TIMER0_IRQHandler
                0x0000000000001ed8                LCD_IRQHandler
                0x0000000000001ed8                PCNT2_IRQHandler
                0x0000000000001ed8                UART0_RX_IRQHandler
                0x0000000000001ed8                LETIMER0_IRQHandler
                0x0000000000001ed8                TIMER1_IRQHandler
                0x0000000000001ed8                USART2_RX_IRQHandler
                0x0000000000001ed8                Default_Handler
                0x0000000000001ed8                EMU_IRQHandler
                0x0000000000001ed8                PCNT0_IRQHandler
                0x0000000000001ed8                USB_IRQHandler
                0x0000000000001ed8                BURTC_IRQHandler
                0x0000000000001ed8                PCNT1_IRQHandler
                0x0000000000001ed8                ACMP0_IRQHandler
                0x0000000000001ed8                USART0_RX_IRQHandler
                0x0000000000001ed8                MemManage_Handler
                0x0000000000001ed8                SVC_Handler
                0x0000000000001ed8                DAC0_IRQHandler
                0x0000000000001ed8                UART1_RX_IRQHandler
                0x0000000000001ed8                CMU_IRQHandler
                0x0000000000001ed8                EBI_IRQHandler
                0x0000000000001ed8                LESENSE_IRQHandler
                0x0000000000001ed8                AES_IRQHandler
                0x0000000000001ed8                VCMP_IRQHandler
                0x0000000000001ed8                DMA_IRQHandler
                0x0000000000001ed8                BusFault_Handler
                0x0000000000001ed8                USART2_TX_IRQHandler
 .text.main     0x0000000000001edc      0x10c build/o3.o
                0x0000000000001edc                main
 .text.pb0_click
                0x0000000000001fe8       0x48 build/o3.o
                0x0000000000001fe8                pb0_click
 .text.pb1_click
                0x0000000000002030       0x4c build/o3.o
                0x0000000000002030                pb1_click
 .text.on_alarm
                0x000000000000207c        0xc build/o3.o
                0x000000000000207c                on_alarm
 .text.set_state
                0x0000000000002088       0x50 build/o3.o
                0x0000000000002088                set_state
 .text.enable_gpio_interrupts
                0x00000000000020d8       0xac build/o3.o
                0x00000000000020d8                enable_gpio_interrupts
 .text.enable_systick
                0x0000000000002184       0x24 build/o3.o
                0x0000000000002184                enable_systick
 .text.disable_systick
                0x00000000000021a8       0x10 build/o3.o
                0x00000000000021a8                disable_systick
 .text.enable_led0
                0x00000000000021b8       0x2c build/o3.o
                0x00000000000021b8                enable_led0
 .text.disable_led0
                0x00000000000021e4       0x2c build/o3.o
                0x00000000000021e4                disable_led0
 .text.SysTick_Handler
                0x0000000000002210        0xe build/o3.o
                0x0000000000002210                SysTick_Handler
 *fill*         0x000000000000221e        0x2 
 .text.decrement_timer
                0x0000000000002220       0x20 build/o3.o
                0x0000000000002220                decrement_timer
 .text.update_lcd
                0x0000000000002240       0x8c build/o3.o
                0x0000000000002240                update_lcd
 .text.GPIO_ODD_IRQHandler
                0x00000000000022cc       0x30 build/o3.o
                0x00000000000022cc                GPIO_ODD_IRQHandler
 .text.GPIO_EVEN_IRQHandler
                0x00000000000022fc       0x30 build/o3.o
                0x00000000000022fc                GPIO_EVEN_IRQHandler
 .text.int_to_string
                0x000000000000232c       0x62 build/o3.o
                0x000000000000232c                int_to_string
 .text.time_to_string
                0x000000000000238e       0x68 build/o3.o
                0x000000000000238e                time_to_string
 *fill*         0x00000000000023f6        0x2 
 .text.exit     0x00000000000023f8       0x28 /usr/bin/../lib/gcc/arm-none-eabi/8.3.1/../../../../arm-none-eabi/lib/thumb/v7-m/nofp/libc_nano.a(lib_a-exit.o)
                0x00000000000023f8                exit
 .text.__libc_init_array
                0x0000000000002420       0x48 /usr/bin/../lib/gcc/arm-none-eabi/8.3.1/../../../../arm-none-eabi/lib/thumb/v7-m/nofp/libc_nano.a(lib_a-init.o)
                0x0000000000002420                __libc_init_array
 .text.memset   0x0000000000002468       0x10 /usr/bin/../lib/gcc/arm-none-eabi/8.3.1/../../../../arm-none-eabi/lib/thumb/v7-m/nofp/libc_nano.a(lib_a-memset.o)
                0x0000000000002468                memset
 .text          0x0000000000002478       0x10 /usr/bin/../lib/gcc/arm-none-eabi/8.3.1/../../../../arm-none-eabi/lib/thumb/v7-m/nofp/libc_nano.a(lib_a-strlen.o)
                0x0000000000002478                strlen
 .text._exit    0x0000000000002488        0x4 /usr/bin/../lib/gcc/arm-none-eabi/8.3.1/../../../../arm-none-eabi/lib/thumb/v7-m/nofp/libnosys.a(_exit.o)
                0x0000000000002488                _exit
 *(.init)
 .init          0x000000000000248c        0x4 /usr/bin/../lib/gcc/arm-none-eabi/8.3.1/thumb/v7-m/nofp/crti.o
                0x000000000000248c                _init
 .init          0x0000000000002490        0x8 /usr/bin/../lib/gcc/arm-none-eabi/8.3.1/thumb/v7-m/nofp/crtn.o
 *(.fini)
 .fini          0x0000000000002498        0x4 /usr/bin/../lib/gcc/arm-none-eabi/8.3.1/thumb/v7-m/nofp/crti.o
                0x0000000000002498                _fini
 .fini          0x000000000000249c        0x8 /usr/bin/../lib/gcc/arm-none-eabi/8.3.1/thumb/v7-m/nofp/crtn.o
 *crtbegin.o(.ctors)
 *crtbegin?.o(.ctors)
 *(EXCLUDE_FILE(*crtend.o *crtend?.o) .ctors)
 *(SORT_BY_NAME(.ctors.*))
 *(.ctors)
 *crtbegin.o(.dtors)
 *crtbegin?.o(.dtors)
 *(EXCLUDE_FILE(*crtend.o *crtend?.o) .dtors)
 *(SORT_BY_NAME(.dtors.*))
 *(.dtors)
 *(.rodata*)
 .rodata.EFM_Display
                0x00000000000024a4      0x1fe build/segmentlcd.o
 *fill*         0x00000000000026a2        0x2 
 .rodata.EFM_Alphabet
                0x00000000000026a4       0xb8 build/segmentlcd.o
 .rodata.lcdInit
                0x000000000000275c       0x14 build/segmentlcd.o
 .rodata        0x0000000000002770       0x3d build/em_cmu.o
 *fill*         0x00000000000027ad        0x3 
 .rodata        0x00000000000027b0       0x20 build/em_system.o
 .rodata        0x00000000000027d0       0x1d build/em_lcd.o
 *fill*         0x00000000000027ed        0x3 
 .rodata._global_impure_ptr
                0x00000000000027f0        0x4 /usr/bin/../lib/gcc/arm-none-eabi/8.3.1/../../../../arm-none-eabi/lib/thumb/v7-m/nofp/libc_nano.a(lib_a-impure.o)
                0x00000000000027f0                _global_impure_ptr
 *(.eh_frame*)
 .eh_frame      0x00000000000027f4        0x0 /usr/bin/../lib/gcc/arm-none-eabi/8.3.1/thumb/v7-m/nofp/crtbegin.o
 .eh_frame      0x00000000000027f4        0x4 /usr/bin/../lib/gcc/arm-none-eabi/8.3.1/thumb/v7-m/nofp/crtend.o

.glue_7         0x00000000000027f8        0x0
 .glue_7        0x00000000000027f8        0x0 linker stubs

.glue_7t        0x00000000000027f8        0x0
 .glue_7t       0x00000000000027f8        0x0 linker stubs

.vfp11_veneer   0x00000000000027f8        0x0
 .vfp11_veneer  0x00000000000027f8        0x0 linker stubs

.v4_bx          0x00000000000027f8        0x0
 .v4_bx         0x00000000000027f8        0x0 linker stubs

.iplt           0x00000000000027f8        0x0
 .iplt          0x00000000000027f8        0x0 /usr/bin/../lib/gcc/arm-none-eabi/8.3.1/thumb/v7-m/nofp/crtbegin.o

.ARM.extab
 *(.ARM.extab* .gnu.linkonce.armextab.*)
                0x00000000000027f8                __exidx_start = .

.ARM.exidx      0x00000000000027f8        0x8
 *(.ARM.exidx* .gnu.linkonce.armexidx.*)
 .ARM.exidx     0x00000000000027f8        0x8 /usr/bin/../lib/gcc/arm-none-eabi/8.3.1/../../../../arm-none-eabi/lib/thumb/v7-m/nofp/crt0.o
                0x0000000000002800                __exidx_end = .
                0x0000000000002800                __etext = .

.rel.dyn        0x0000000000002800        0x0
 .rel.iplt      0x0000000000002800        0x0 /usr/bin/../lib/gcc/arm-none-eabi/8.3.1/thumb/v7-m/nofp/crtbegin.o

.data           0x0000000020000000       0x90 load address 0x0000000000002800
                0x0000000020000000                __data_start__ = .
 *(vtable)
 *(.data*)
 .data.SystemHFXOClock
                0x0000000020000000        0x4 build/system_efm32gg.o
 .data.SystemLFXOClock
                0x0000000020000004        0x4 build/system_efm32gg.o
 .data.gpio     0x0000000020000008        0x4 build/o3.o
                0x0000000020000008                gpio
 .data.systick  0x000000002000000c        0x4 build/o3.o
                0x000000002000000c                systick
 .data.PB0      0x0000000020000010        0x8 build/o3.o
                0x0000000020000010                PB0
 .data.PB1      0x0000000020000018        0x8 build/o3.o
                0x0000000020000018                PB1
 .data.LED0     0x0000000020000020        0x8 build/o3.o
                0x0000000020000020                LED0
 .data.impure_data
                0x0000000020000028       0x60 /usr/bin/../lib/gcc/arm-none-eabi/8.3.1/../../../../arm-none-eabi/lib/thumb/v7-m/nofp/libc_nano.a(lib_a-impure.o)
                0x0000000020000088                . = ALIGN (0x4)
 *(.ram)
                0x0000000020000088                . = ALIGN (0x4)
                0x0000000020000088                PROVIDE (__preinit_array_start = .)
 *(.preinit_array)
                0x0000000020000088                PROVIDE (__preinit_array_end = .)
                0x0000000020000088                . = ALIGN (0x4)
                0x0000000020000088                PROVIDE (__init_array_start = .)
 *(SORT_BY_NAME(.init_array.*))
 *(.init_array)
 .init_array    0x0000000020000088        0x4 /usr/bin/../lib/gcc/arm-none-eabi/8.3.1/thumb/v7-m/nofp/crtbegin.o
                0x000000002000008c                PROVIDE (__init_array_end = .)
                0x000000002000008c                . = ALIGN (0x4)
                [!provide]                        PROVIDE (__fini_array_start = .)
 *(SORT_BY_NAME(.fini_array.*))
 *(.fini_array)
 .fini_array    0x000000002000008c        0x4 /usr/bin/../lib/gcc/arm-none-eabi/8.3.1/thumb/v7-m/nofp/crtbegin.o
                [!provide]                        PROVIDE (__fini_array_end = .)
 *(.jcr*)
                0x0000000020000090                . = ALIGN (0x4)
                0x0000000020000090                __data_end__ = .

.igot.plt       0x0000000020000090        0x0 load address 0x0000000000002890
 .igot.plt      0x0000000020000090        0x0 /usr/bin/../lib/gcc/arm-none-eabi/8.3.1/thumb/v7-m/nofp/crtbegin.o

.bss            0x0000000020000090       0x2c load address 0x0000000000002890
                0x0000000020000090                . = ALIGN (0x4)
                0x0000000020000090                __bss_start__ = .
 *(.bss*)
 .bss           0x0000000020000090       0x1c /usr/bin/../lib/gcc/arm-none-eabi/8.3.1/thumb/v7-m/nofp/crtbegin.o
 .bss.cmuStatus
                0x00000000200000ac        0x4 build/em_emu.o
 .bss.state     0x00000000200000b0        0x4 build/o3.o
                0x00000000200000b0                state
 .bss.seconds   0x00000000200000b4        0x4 build/o3.o
                0x00000000200000b4                seconds
 *(COMMON)
 COMMON         0x00000000200000b8        0x4 build/system_efm32gg.o
                0x00000000200000b8                SystemCoreClock
                0x00000000200000bc                . = ALIGN (0x4)
                0x00000000200000bc                __bss_end__ = .

.heap           0x00000000200000c0      0xc00
                0x00000000200000c0                __HeapBase = .
                0x00000000200000c0                __end__ = .
                0x00000000200000c0                end = __end__
                0x00000000200000c0                _end = __end__
 *(.heap*)
 .heap          0x00000000200000c0      0xc00 build/startup_efm32gg.o
                0x0000000020000cc0                __HeapLimit = .

.stack_dummy    0x00000000200000c0      0x400
 *(.stack*)
 .stack         0x00000000200000c0      0x400 build/startup_efm32gg.o
                0x0000000020020000                __StackTop = (ORIGIN (RAM) + LENGTH (RAM))
                0x000000002001fc00                __StackLimit = (__StackTop - SIZEOF (.stack_dummy))
                0x0000000020020000                PROVIDE (__stack = __StackTop)
                0x0000000000000001                ASSERT ((__StackLimit >= __HeapLimit), region RAM overflowed with stack)
                0x0000000000000001                ASSERT ((LENGTH (FLASH) >= (__etext + SIZEOF (.data))), FLASH memory overflowed !)
OUTPUT(exe/o3.out elf32-littlearm)

.ARM.attributes
                0x0000000000000000       0x29
 .ARM.attributes
                0x0000000000000000       0x1d /usr/bin/../lib/gcc/arm-none-eabi/8.3.1/thumb/v7-m/nofp/crti.o
 .ARM.attributes
                0x000000000000001d       0x2d /usr/bin/../lib/gcc/arm-none-eabi/8.3.1/thumb/v7-m/nofp/crtbegin.o
 .ARM.attributes
                0x000000000000004a       0x1b /usr/bin/../lib/gcc/arm-none-eabi/8.3.1/../../../../arm-none-eabi/lib/thumb/v7-m/nofp/crt0.o
 .ARM.attributes
                0x0000000000000065       0x33 build/system_efm32gg.o
 .ARM.attributes
                0x0000000000000098       0x33 build/segmentlcd.o
 .ARM.attributes
                0x00000000000000cb       0x33 build/em_assert.o
 .ARM.attributes
                0x00000000000000fe       0x33 build/em_cmu.o
 .ARM.attributes
                0x0000000000000131       0x33 build/em_emu.o
 .ARM.attributes
                0x0000000000000164       0x33 build/em_system.o
 .ARM.attributes
                0x0000000000000197       0x33 build/em_lcd.o
 .ARM.attributes
                0x00000000000001ca       0x33 build/init.o
 .ARM.attributes
                0x00000000000001fd       0x1b build/startup_efm32gg.o
 .ARM.attributes
                0x0000000000000218       0x2d build/o3.o
 .ARM.attributes
                0x0000000000000245       0x2d /usr/bin/../lib/gcc/arm-none-eabi/8.3.1/../../../../arm-none-eabi/lib/thumb/v7-m/nofp/libc_nano.a(lib_a-exit.o)
 .ARM.attributes
                0x0000000000000272       0x2d /usr/bin/../lib/gcc/arm-none-eabi/8.3.1/../../../../arm-none-eabi/lib/thumb/v7-m/nofp/libc_nano.a(lib_a-impure.o)
 .ARM.attributes
                0x000000000000029f       0x2d /usr/bin/../lib/gcc/arm-none-eabi/8.3.1/../../../../arm-none-eabi/lib/thumb/v7-m/nofp/libc_nano.a(lib_a-init.o)
 .ARM.attributes
                0x00000000000002cc       0x2d /usr/bin/../lib/gcc/arm-none-eabi/8.3.1/../../../../arm-none-eabi/lib/thumb/v7-m/nofp/libc_nano.a(lib_a-memset.o)
 .ARM.attributes
                0x00000000000002f9       0x17 /usr/bin/../lib/gcc/arm-none-eabi/8.3.1/../../../../arm-none-eabi/lib/thumb/v7-m/nofp/libc_nano.a(lib_a-strlen.o)
 .ARM.attributes
                0x0000000000000310       0x2d /usr/bin/../lib/gcc/arm-none-eabi/8.3.1/../../../../arm-none-eabi/lib/thumb/v7-m/nofp/libnosys.a(_exit.o)
 .ARM.attributes
                0x000000000000033d       0x2d /usr/bin/../lib/gcc/arm-none-eabi/8.3.1/thumb/v7-m/nofp/crtend.o
 .ARM.attributes
                0x000000000000036a       0x1d /usr/bin/../lib/gcc/arm-none-eabi/8.3.1/thumb/v7-m/nofp/crtn.o

.comment        0x0000000000000000       0xf4
 .comment       0x0000000000000000       0x7e build/system_efm32gg.o
                                         0x7f (size before relaxing)
 .comment       0x000000000000007e       0x7f build/segmentlcd.o
 .comment       0x000000000000007e       0x7f build/em_assert.o
 .comment       0x000000000000007e       0x7f build/em_cmu.o
 .comment       0x000000000000007e       0x7f build/em_emu.o
 .comment       0x000000000000007e       0x7f build/em_system.o
 .comment       0x000000000000007e       0x7f build/em_lcd.o
 .comment       0x000000000000007e       0x7f build/init.o
 .comment       0x000000000000007e       0x76 build/o3.o
                                         0x77 (size before relaxing)

.debug_info     0x0000000000000000      0x5b8
 .debug_info    0x0000000000000000      0x5b8 build/o3.o

.debug_abbrev   0x0000000000000000      0x204
 .debug_abbrev  0x0000000000000000      0x204 build/o3.o

.debug_aranges  0x0000000000000000       0xa0
 .debug_aranges
                0x0000000000000000       0xa0 build/o3.o

.debug_ranges   0x0000000000000000       0x90
 .debug_ranges  0x0000000000000000       0x90 build/o3.o

.debug_macro    0x0000000000000000     0x1016
 .debug_macro   0x0000000000000000       0x8d build/o3.o
 .debug_macro   0x000000000000008d      0xa90 build/o3.o
 .debug_macro   0x0000000000000b1d       0x22 build/o3.o
 .debug_macro   0x0000000000000b3f       0x8e build/o3.o
 .debug_macro   0x0000000000000bcd       0x51 build/o3.o
 .debug_macro   0x0000000000000c1e      0x103 build/o3.o
 .debug_macro   0x0000000000000d21       0x6a build/o3.o
 .debug_macro   0x0000000000000d8b      0x1df build/o3.o
 .debug_macro   0x0000000000000f6a       0x22 build/o3.o
 .debug_macro   0x0000000000000f8c       0x22 build/o3.o
 .debug_macro   0x0000000000000fae       0x40 build/o3.o
 .debug_macro   0x0000000000000fee       0x28 build/o3.o

.debug_line     0x0000000000000000      0x440
 .debug_line    0x0000000000000000      0x440 build/o3.o

.debug_str      0x0000000000000000     0x3f14
 .debug_str     0x0000000000000000     0x3f14 build/o3.o
                                       0x4086 (size before relaxing)

.debug_frame    0x0000000000000000      0x228
 .debug_frame   0x0000000000000000      0x194 build/o3.o
 .debug_frame   0x0000000000000194       0x28 /usr/bin/../lib/gcc/arm-none-eabi/8.3.1/../../../../arm-none-eabi/lib/thumb/v7-m/nofp/libc_nano.a(lib_a-exit.o)
 .debug_frame   0x00000000000001bc       0x2c /usr/bin/../lib/gcc/arm-none-eabi/8.3.1/../../../../arm-none-eabi/lib/thumb/v7-m/nofp/libc_nano.a(lib_a-init.o)
 .debug_frame   0x00000000000001e8       0x20 /usr/bin/../lib/gcc/arm-none-eabi/8.3.1/../../../../arm-none-eabi/lib/thumb/v7-m/nofp/libc_nano.a(lib_a-memset.o)
 .debug_frame   0x0000000000000208       0x20 /usr/bin/../lib/gcc/arm-none-eabi/8.3.1/../../../../arm-none-eabi/lib/thumb/v7-m/nofp/libnosys.a(_exit.o)
